:100000000C9446000C9458000C9458000C94580022
:100010000C9458000C9458000C9458000C94580000
:100020000C9458000C9458000C9458000C945800F0
:100030000C9458000C9458000C9458000C945800E0
:100040000C9458000C9458000C9458000C945800D0
:100050000C9458000C9458000C9458000C945800C0
:100060000C9458000C9458000C9458000C945800B0
:100070000C9458000C9458000C9458000C945800A0
:100080000C9458000C9458000C94580011241FBE76
:10009000CFEFD0E4DEBFCDBF11E0A0E0B1E001C002
:1000A0001D92A630B107E1F70E945A000C946C0330
:1000B0000C940000CF93DF93CDB7DEB781E290E0E0
:1000C000FC01108284E290E02FEFFC01208382E2A9
:1000D00090E02FEFFC01208385E290E0FC0110828C
:1000E00010920501109204010E9418010E943D0126
:1000F000FDCF0F931F93CF93DF9300D000D0CDB7E8
:10010000DEB769837A838B839C8380910001909111
:100110000101A0910201B09103019C01AD0169812F
:100120007A818B819C810E94F301882309F477C036
:1001300020E030E0A90169817A818B819C810E9455
:10014000F301882351F481E990E021E930E0F901DD
:1001500020812870FC01208309C081E990E021E919
:1001600030E0F90120812360FC01208328E539E398
:1001700044E75FE369817A818B819C810E94F3016E
:10018000882344F488E990E02FEF3FEFFC013183AE
:10019000208334C020E034E244EF56E469817A8160
:1001A0008B819C810E940503181634F488E990E045
:1001B000FC011182108222C008E910E020E030E04A
:1001C00040E053E469817A818B819C810E9409031C
:1001D000DC01CB019C01AD0160E074E284EF9AE4A4
:1001E0000E94F701DC01CB01BC01CD010E945F023E
:1001F000DC01CB010197F8019183808384E990E0D1
:10020000FC011182108289819A81AB81BC8180932B
:10021000000190930101A0930201B09303010F909C
:100220000F900F900F90DF91CF911F910F91089534
:10023000CF93DF93CDB7DEB780E990E020E4FC01F7
:10024000208381E990E02BE0FC01208360E070E0F6
:10025000CB010E947900DF91CF910895CF93DF9376
:10026000CDB7DEB780E990E0FC01108281E990E033
:10027000FC011082DF91CF910895CF93DF93CDB72A
:10028000DEB780910401909105018130910589F0DC
:100290008130910538F08230910529F18330910544
:1002A000E1F142C081E090E0909305018093040168
:1002B0003BC080E290E0FC018081882F90E0809537
:1002C000909587709927009739F082E090E090939D
:1002D00005018093040128C081E090E0909305011E
:1002E0008093040121C080E290E0FC018081882F8E
:1002F00090E08095909587709927009739F082E07B
:1003000090E090930501809304010EC083E090E09B
:10031000909305018093040107C081E090E09093E1
:100320000501809304010000809104019091050172
:100330008130910561F08130910508F450C0823020
:10034000910559F08330910509F443C049C060E03C
:1003500070E0CB010E94790043C080E290E0FC0194
:100360008081882F90E080959095877099278130C3
:10037000910539F46DEC74E883E295E40E9479000C
:100380002FC080E290E0FC018081882F90E0809572
:100390009095877099278230910539F46AE979E858
:1003A00087E395E40E9479001BC080E290E0FC01A5
:1003B0008081882F90E08095909587709927843070
:1003C000910539F46DEC74E08EE495E40E947900B7
:1003D00007C060E070E0CB010E94790001C000001E
:1003E000DF91CF9108959CD008F481E008950CD05E
:1003F000D2C0CAD040F0C1D030F021F45F3F19F034
:10040000B3C05111FCC0B6C0D7D098F39923C9F33B
:100410005523B1F3951B550BBB27AA27621773070A
:10042000840738F09F5F5F4F220F331F441FAA1FBE
:10043000A9F333D00E2E3AF0E0E830D0915050407E
:10044000E695001CCAF729D0FE2F27D0660F771F2C
:10045000881FBB1F261737074807AB07B0E809F00E
:10046000BB0B802DBF01FF2793585F4F2AF09E3FA3
:10047000510568F079C0C3C05F3FECF3983EDCF3F0
:10048000869577956795B795F7959F5FC9F7880F1C
:10049000911D9695879597F90895E1E0660F771F6E
:1004A000881FBB1F621773078407BA0720F0621BFF
:1004B000730B840BBA0BEE1F88F7E095089504D0F8
:1004C0006894B1119CC008957FD088F09F5790F038
:1004D000B92F9927B751A0F0D1F0660F771F881F69
:1004E000991F1AF0BA95C9F712C0B13081F086D0C1
:1004F000B1E0089583C0672F782F8827B85F39F05F
:10050000B93FCCF3869577956795B395D9F73EF4C7
:1005100090958095709561957F4F8F4F9F4F08956F
:10052000990F0008550FAA0BE0E8FEEF1616170604
:10053000E807F907C0F012161306E407F50798F06C
:10054000621B730B840B950B39F40A2661F0232B85
:10055000242B252B21F408950A2609F4A140A69501
:100560008FEF811D811D089597F99F6780E870E0E6
:1005700060E008959FEF80EC089500240A94161619
:10058000170618060906089500240A941216130681
:10059000140605060895092E0394000C11F488230F
:1005A00052F0BB0F40F4BF2B11F460FF04C06F5F2B
:1005B0007F4F8F4F9F4F089557FD9058440F551F01
:1005C00059F05F3F71F04795880F97FB991F61F0D5
:1005D0009F3F79F087950895121613061406551F4C
:1005E000F2CF4695F1DF08C0161617061806991FB8
:1005F000F1CF86957105610508940895E894BB27AD
:1006000066277727CB0197F908958ADF08F48FEFE3
:1006100008950BD0C0CFB1DF28F0B6DF18F09523D6
:1006200009F0A2CFA7CF1124EACFC6DFA0F3959F90
:10063000D1F3950F50E0551F629FF001729FBB27C9
:10064000F00DB11D639FAA27F00DB11DAA1F649F75
:100650006627B00DA11D661F829F2227B00DA11D28
:10066000621F739FB00DA11D621F839FA00D611DAE
:10067000221F749F3327A00D611D231F849F600DCF
:10068000211D822F762F6A2F11249F5750408AF008
:10069000E1F088234AF0EE0FFF1FBB1F661F771F94
:1006A000881F91505040A9F79E3F510570F05CCFD4
:1006B000A6CF5F3FECF3983EDCF386957795679580
:1006C000B795F795E7959F5FC1F7FE2B880F911DB2
:0C06D0009695879597F90895F894FFCF50
:00000001FF
