:100000000C9446000C9465000C9465000C946500FB
:100010000C9465000C9465000C9465000C946500CC
:100020000C9465000C9465000C9465000C946500BC
:100030000C9465000C94A3000C9465000C9465006E
:100040000C9465000C9465000C9465000C9465009C
:100050000C9465000C9465000C9465000C9465008C
:100060000C9465000C9465000C9465000C9465007C
:100070000C9465000C9465000C9465000C9465006C
:100080000C9465000C9465000C94650011241FBE4F
:10009000CFEFD0E4DEBFCDBF11E0A0E0B1E0E4E5FA
:1000A000F3E000E00BBF02C007900D92A231B10750
:1000B000D9F711E0A2E1B1E001C01D92A931B10769
:1000C000E1F70E948E010C94A8010C940000CF93DC
:1000D000C82F8A3019F48DE00E9467009091C0000B
:1000E00095FFFCCFC093C60080E090E0CF910895CB
:1000F0008BE0809381008DE790E09093890080935E
:10010000880082E080936F00109285001092840036
:100110008091000190910101A0910201B091030131
:100120008093120190931301A0931401B0931501D1
:100130008FB780688FBF089510928100089581E085
:100140008093160108951F920F920FB60F921124FB
:100150000BB60F922F933F934F935F936F937F93C1
:100160008F939F93AF93BF93EF93FF93809112016F
:1001700090911301A0911401B09115010197A1096B
:10018000B1098093120190931301A0931401B093CD
:100190001501892B8A2B8B2B91F40E949F00809153
:1001A000000190910101A0910201B091030180939F
:1001B000120190931301A0931401B0931501FF91C4
:1001C000EF91BF91AF919F918F917F916F915F91CF
:1001D0004F913F912F910F900BBE0F900FBE0F903C
:1001E0001F901895609300017093010180930201A4
:1001F0009093030160931201709313018093140193
:100200009093150108958091170190911801823003
:10021000910549F128F4009761F0019791F0089554
:100220008430910509F443C080F1059709F44FC06B
:10023000089515B881E090E090931801809317011C
:100240000895009907C084E090E09093180180938E
:100250001701089581E085B982E090E0909318013C
:10026000809317010895009907C084E090E090936F
:10027000180180931701089582E085B983E090E02A
:1002800090931801809317010895009907C084E0A6
:1002900090E09093180180931701089584E085B948
:1002A00081E090E0909318018093170108950099E0
:1002B00007C084E090E0909318018093170108959F
:1002C00085E090E0909318018093170108950099BC
:1002D0001EC085B1813039F481E090E0909318011F
:1002E00080931701089585B1823039F482E090E05F
:1002F0009093180180931701089585B1843069F4B3
:1003000083E090E09093180180931701089585E0B1
:1003100090E09093180180931701089511B88FEF22
:1003200084B982B915B8109218011092170162E3CE
:1003300070E080E090E00E94F2000E9478000E944D
:100340000301809116018823E1F310921601F7CF83
:04035000F894FFCF4F
:10035400010000000000000200000000670000002F
:02036400000097
:00000001FF
