:100000000C9446000C9465000C9465000C946500FB
:100010000C9465000C9465000C9465000C946500CC
:100020000C9465000C9465000C9465000C946500BC
:100030000C9465000C94F8020C9465000C94650017
:100040000C9465000C9465000C9465000C9465009C
:100050000C9465000C9465000C9465000C9465008C
:100060000C9465000C9465000C9465000C9465007C
:100070000C9465000C9465000C9465000C9465006C
:100080000C9465000C9465000C94650011241FBE4F
:10009000CFEFD0E4DEBFCDBF11E0A0E0B1E0E0E102
:1000A000F7E000E00BBF02C007900D92A430B1074B
:1000B000D9F711E0A4E0B1E001C01D92A631B1076B
:1000C000E1F70E945C010C9486030C940000CF932E
:1000D000DF93CDB7DEB781E00E948C00DF91CF9136
:1000E0000895CF93DF93CDB7DEB784E690E00E940A
:1000F0002C0188E30E948C0086E00E948C008FE037
:100100000E948C0081E00E948C008AE090E00E94B6
:100110002C01DF91CF910895CF93DF931F92CDB73C
:10012000DEB789838BE290E02BE230E0F901208199
:100130002F7BFC01208388E290E02981FC01208351
:100140008BE290E02BE230E0F90120812068FC0195
:10015000208300008BE290E02BE230E0F901208167
:100160002F77FC01208382E090E00E942C010F9009
:10017000DF91CF910895CF93DF931F92CDB7DEB774
:1001800089838BE290E02BE230E0F901208120644A
:10019000FC01208388E290E02981FC0120838BE22E
:1001A00090E02BE230E0F90120812068FC012083FF
:1001B00000008BE290E02BE230E0F90120812F7704
:1001C000FC01208381E090E00E942C010F90DF91E0
:1001D000CF910895CF93DF9300D000D0CDB7DEB795
:1001E0008A837C836B830E9467008A81898311C024
:1001F000898191E0980F99830E9416018B819C81DF
:100200009C012F5F3F4F3C832B83FC0180810E9428
:10021000BB008B819C81FC018081882349F70F9072
:100220000F900F900F90DF91CF910895CF93DF93B0
:100230001F92CDB7DEB789838981813128F4898106
:1002400081580E948C0004C0898181550E948C00D5
:100250000F90DF91CF910895CF93DF9300D000D01E
:1002600000D0CDB7DEB79E838D831A82198214C069
:100270001C821B8206C000008B819C8101969C839E
:100280008B838B819C81873023E09207A4F3898143
:100290009A8101969A83898329813A818D819E81F1
:1002A000281739072CF326960FB6F894DEBF0FBE39
:1002B000CDBFDF91CF910895CF93DF93CDB7DEB758
:1002C00084E290E02FEFFC01208385E290E0FC01C6
:1002D00010821092150110921401109211011092C7
:1002E0001001109213011092120110920601109247
:1002F0000501109209011092080161E070E080E0B0
:1003000090E00E9459030E94AD020E9493010E9456
:1003100022020E948702000080910B018823E1F3F2
:1003200010920B01F2CFCF93DF93CDB7DEB7809160
:100330001401909115018130910591F08130910562
:1003400040F08230910589F18330910509F452C063
:1003500076C081E090E090931501809314016FC006
:1003600081E08093040180910501909106018E3116
:10037000910580F481E090E0909315018093140141
:10038000809105019091060101969093060180935A
:10039000050155C082E090E090931501809314010F
:1003A00010920601109205014AC082E08093040178
:1003B00080910501909106018E31910580F482E0D3
:1003C00090E0909315018093140180910501909124
:1003D00006010196909306018093050130C083E0E9
:1003E00090E09093150180931401109206011092F1
:1003F000050125C084E0809304018091050190915E
:1004000006018E31910580F483E090E09093150110
:1004100080931401809105019091060101969093BB
:100420000601809305010BC081E090E090931501D7
:100430008093140110920601109205010000DF91D3
:10044000CF910895CF93DF93CDB7DEB780911001A0
:10045000909111018130910571F08130910520F06A
:100460008230910569F150C081E090E090931101D4
:100470008093100149C088E08093070180910801B2
:10048000909109018436910580F481E090E0909389
:10049000110180931001809108019091090101964A
:1004A00090930901809308012FC082E090E090931F
:1004B000110180931001109209011092080124C0CB
:1004C00010920701809108019091090184369105ED
:1004D00080F482E090E0909311018093100180916C
:1004E00008019091090101969093090180930801F8
:1004F0000BC081E090E09093110180931001109265
:100500000901109208010000DF91CF910895CF9367
:10051000DF93CDB7DEB78091120190911301009760
:1005200021F08130910541F015C081E090E0909379
:100530001301809312010EC0909107018091040174
:10054000892B80930A0185E290E020910A01FC0149
:1005500020830000DF91CF910895CF93DF93CDB733
:10056000DEB781E890E02BE0FC01208388E890E092
:100570002DE730E0FC01318320838FE690E022E01C
:10058000FC01208384E890E0FC01118210828091BC
:10059000000190910101A0910201B09103018093AB
:1005A0000C0190930D01A0930E01B0930F018FE504
:1005B00090E02FE530E0F90120812068FC012083E4
:1005C000DF91CF910895CF93DF93CDB7DEB781E868
:1005D00090E0FC011082DF91CF910895CF93DF93DB
:1005E000CDB7DEB781E080930B01DF91CF91089505
:1005F0001F920F9200905F000F92112400905B00F9
:100600000F922F933F934F935F936F937F938F93AB
:100610009F93AF93BF93EF93FF93CF93DF93CDB7A8
:10062000DEB780910C0190910D01A0910E01B09167
:100630000F010197A109B10980930C0190930D015D
:10064000A0930E01B0930F0180910C0190910D01C8
:10065000A0910E01B0910F010097A105B10591F491
:100660000E94EE028091000190910101A09102018F
:10067000B091030180930C0190930D01A0930E01A2
:10068000B0930F01DF91CF91FF91EF91BF91AF91A7
:100690009F918F917F916F915F914F913F912F919A
:1006A0000F9000925B000F9000925F000F901F90E0
:1006B0001895CF93DF9300D000D0CDB7DEB7698314
:1006C0007A838B839C8389819A81AB81BC8180935F
:1006D000000190930101A0930201B0930301809166
:1006E000000190910101A0910201B091030180935A
:1006F0000C0190930D01A0930E01B0930F010F9088
:100700000F900F900F90DF91CF910895F894FFCF45
:0407100001000000E4
:00000001FF
