:100000000C9446000C9465000C9465000C946500FB
:100010000C9465000C9465000C9465000C946500CC
:100020000C9465000C9465000C9465000C946500BC
:100030000C9465000C94D4010C9465000C9465003C
:100040000C9465000C9465000C9465000C9465009C
:100050000C9465000C9465000C9465000C9465008C
:100060000C9465000C9465000C9465000C9465007C
:100070000C9465000C9465000C9465000C9465006C
:100080000C9465000C9465000C94650011241FBE4F
:10009000CFEFD0E4DEBFCDBF11E0A0E0B1E0E6EAF3
:1000A000FAE000E00BBF02C007900D92AE32B1073C
:1000B000D9F711E0AEE2B1E001C01D92AF34B10753
:1000C000E1F70E94E8030C9451050C940000CF93D3
:1000D000DF93CDB7DEB781E00E948C00DF91CF9136
:1000E0000895CF93DF93CDB7DEB784E690E00E940A
:1000F0002C0188E30E948C0086E00E948C008FE037
:100100000E948C0081E00E948C008AE090E00E94B6
:100110002C01DF91CF910895CF93DF931F92CDB73C
:10012000DEB789838BE290E02BE230E0F901208199
:100130002F7BFC01208388E290E02981FC01208351
:100140008BE290E02BE230E0F90120812068FC0195
:10015000208300008BE290E02BE230E0F901208167
:100160002F77FC01208382E090E00E942C010F9009
:10017000DF91CF910895CF93DF931F92CDB7DEB774
:1001800089838BE290E02BE230E0F901208120644A
:10019000FC01208388E290E02981FC0120838BE22E
:1001A00090E02BE230E0F90120812068FC012083FF
:1001B00000008BE290E02BE230E0F90120812F7704
:1001C000FC01208381E090E00E942C010F90DF91E0
:1001D000CF910895CF93DF9300D000D0CDB7DEB795
:1001E0008A837C836B830E9467008A81898311C024
:1001F000898191E0980F99830E9416018B819C81DF
:100200009C012F5F3F4F3C832B83FC0180810E9428
:10021000BB008B819C81FC018081882349F70F9072
:100220000F900F900F90DF91CF910895CF93DF93B0
:100230001F92CDB7DEB789838981813128F4898106
:1002400081580E948C0004C0898181550E948C00D5
:100250000F90DF91CF910895CF93DF9300D000D01E
:1002600000D0CDB7DEB79E838D831A82198214C069
:100270001C821B8206C000008B819C8101969C839E
:100280008B838B819C81873023E09207A4F3898143
:100290009A8101969A83898329813A818D819E81F1
:1002A000281739072CF326960FB6F894DEBF0FBE39
:1002B000CDBFDF91CF910895CF93DF9300D000D0D1
:1002C000CDB7DEB769837A838B839C8389819A81DA
:1002D000AB81BC818093000190930101A093020146
:1002E000B09303018091000190910101A09102015E
:1002F000B091030180932F0190933001A0933101BD
:10030000B09332010F900F900F900F90DF91CF912B
:100310000895CF93DF93CDB7DEB781E890E02BE06F
:10032000FC01208388E890E02DE730E0FC01318378
:1003300020838FE690E022E0FC01208384E890E0B7
:10034000FC01118210828091000190910101A09125
:100350000201B091030180932F0190933001A0938B
:100360003101B09332018FE590E02FE530E0F901E3
:1003700020812068FC012083DF91CF910895CF93E5
:10038000DF93CDB7DEB781E890E0FC011082DF910A
:10039000CF910895CF93DF93CDB7DEB781E08093FF
:1003A0002E01DF91CF9108951F920F9200905F0070
:1003B0000F92112400905B000F922F933F934F9365
:1003C0005F936F937F938F939F93AF93BF93EF93BD
:1003D000FF93CF93DF93CDB7DEB780912F0190913C
:1003E0003001A0913101B09132010197A109B10909
:1003F00080932F0190933001A0933101B09332018B
:1004000080912F0190913001A0913101B091320182
:100410000097A105B10591F40E94CA0180910001E5
:1004200090910101A0910201B091030180932F01ED
:1004300090933001A0933101B0933201DF91CF91BD
:10044000FF91EF91BF91AF919F918F917F916F91AC
:100450005F914F913F912F910F9000925B000F9011
:1004600000925F000F901F901895CF93DF93CDB748
:10047000DEB760970FB6F894DEBF0FBECDBF6D83B9
:100480007E838F83988729873A874B875C878D8106
:100490009E81AF81B88529853A854B855C85BC01F5
:1004A000CD010E942F05DC01CB0189839A83AB83A8
:1004B000BC8389819A81AB81BC810097A105B1057C
:1004C00029F489859A85AB85BC8511C089859A8573
:1004D000AB85BC858D839E83AF83B88789819A81E4
:1004E000AB81BC8189879A87AB87BC87D0CFBC01A1
:1004F000CD0160960FB6F894DEBF0FBECDBFDF9181
:10050000CF910895CF93DF9300D01F92CDB7DEB780
:1005100089836A834B838B81882379F08A81282F92
:1005200030E081E090E0022E02C0880F991F0A940B
:10053000E2F7982F8981892B0FC08A81282F30E01C
:1005400081E090E0022E02C0880F991F0A94E2F722
:10055000982F9095898189230F900F900F90DF91AC
:10056000CF910895CF93DF9300D0CDB7DEB78983C5
:100570006A838A81282F30E081E090E0022E02C059
:10058000880F991F0A94E2F7982F898189230F9089
:100590000F90DF91CF910895CF93DF9300D000D0DB
:1005A00000D0CDB7DEB79E838D8386E290E0A0E0D9
:1005B000B0E089839A83AB83BC838D819E81009751
:1005C00009F0F8C00E94670080E10E94160189814D
:1005D0009A81AB81BC819C01AD01215F3F4F4F4FA0
:1005E0005F4F8091330190913401A0913501B0911A
:1005F000360182179307A407B50708F0C0C08091A1
:10060000330190913401A0913501B09136010196EA
:10061000A11DB11D8093330190933401A093350146
:10062000B093360180E190E090932B0180932A01F2
:100630005DC020912A0130912B0180912C01882FDF
:1006400090E0A901481B590BCA0101979C0140E0A9
:1006500050E08091370190913801A0913901B0911B
:100660003A01820F931FA41FB51F80933B01909303
:100670003C01A0933D01B0933E0120913B0130919C
:100680003C0140913D0150913E0189819A81AB81AD
:10069000BC810197A109B109281739074A075B07EF
:1006A00020F080E280933F010EC080913B01909149
:1006B0003C01A0913D01B0913E018C5F9E4FFC0139
:1006C000808180933F0180912A0190912B010E94AB
:1006D000160180913F010E94BB0080912A019091F8
:1006E0002B01019790932B0180932A0180912C017B
:1006F000282F30E080912A0190912B01281739078B
:1007000008F497CF80912C018823C1F080912C01AF
:10071000815080932C018091400190914101A091E2
:100720004201B09143010196A11DB11D809340018A
:1007300090934101A0934201B09343018091400105
:1007400090914101A0914201B09143018031910506
:10075000A105B10578F18091370190913801A09100
:100760003901B0913A010196A11DB11D8093370165
:1007700090933801A0933901B0933A011BC01092B5
:1007800033011092340110923501109236018FE03E
:1007900080932C0110923701109238011092390188
:1007A00010923A01109240011092410110924201C0
:1007B000109243011E821D8200008D819E8126962B
:1007C0000FB6F894DEBF0FBECDBFDF91CF91089575
:1007D0000F931F93CF93DF93CDB7DEB72A970FB652
:1007E000F894DEBF0FBECDBF87E290E02FEFFC0193
:1007F00020838AE290E02FEFFC01208388E290E0E2
:10080000FC0110828BE290E0FC01108284E491E014
:100810009A87898781E090E098878F8310924401BE
:1008200082E390E0A0E0B0E0809345019093460120
:10083000A0934701B09348018091450190914601F2
:10084000A0914701B09148018093490190934A01DA
:10085000A0934B01B0934C018CEC92E090934E012D
:1008600080934D010E9471000E94670089859A85DE
:10087000FC0181819281A381B4818B839C83AD83B0
:10088000BE8381E090E09A83898325C089819A8123
:10089000880F991F9E012F5F3F4F820F931F08966D
:1008A000FC0180819181FC0121813281438154814D
:1008B0008B819C81AD81BE81BC01CD010E9435023E
:1008C000DC01CB018B839C83AD83BE8389819A81BC
:1008D00001969A83898329813A818F819885281787
:1008E0003907A0F28B819C81AD81BE81BC01CD0115
:1008F0000E945C010E9489011A821982A0C089812C
:100900009A81880F991F9E012F5F3F4F820F931F7F
:100910000896FC0180819181FC0125813681478107
:10092000508589819A81880F991FBE016F5F7F4F23
:10093000860F971F0896FC0180819181FC018181BF
:100940009281A381B481281739074A075B0709F010
:1009500045C089819A81880F991F9E012F5F3F4F63
:10096000820F931F0896FC010081118189819A8171
:10097000880F991F9E012F5F3F4F820F931F08968C
:10098000FC0180819181FC012185328589819A81D8
:10099000880F991FAE014F5F5F4F840F951F089618
:1009A000FC0180819181FC018081992787FD9095D0
:1009B000F9010995F801808389819A81880F991F2F
:1009C0009E012F5F3F4F820F931F0896FC0180818D
:1009D0009181FC01158216821782108689819A8185
:1009E000880F991F9E012F5F3F4F820F931F08961C
:1009F000FC016081718189819A81880F991F9E0114
:100A00002F5F3F4F820F931F0896FC0180819181D9
:100A1000FC0125813681478150858B819C81AD8188
:100A2000BE81820F931FA41FB51FFB018583968390
:100A3000A783B08789819A8101969A8389832981C6
:100A40003A818F8198852817390708F458CF00001C
:100A500080912E018823E1F310922E014DCFA1E267
:100A60001A2EAA1BBB1BFD010DC0AA1FBB1FEE1F28
:100A7000FF1FA217B307E407F50720F0A21BB30B73
:100A8000E40BF50B661F771F881F991F1A9469F7EF
:100A900060957095809590959B01AC01BD01CF014B
:060AA0000895F894FFCF59
:100AA60001000000435331323042206973204C6507
:100AB60067656E642E2E2E207761697420666F72CC
:0E0AC600206974204441525921001000100094
:00000001FF
