:100000000C9446000C9465000C9465000C946500FB
:100010000C9465000C9465000C9465000C946500CC
:100020000C9465000C9465000C9465000C946500BC
:100030000C9465000C9465000C9465000C946500AC
:100040000C9465000C9465000C9465000C9465009C
:100050000C9465000C9465000C9465000C9465008C
:100060000C9465000C9465000C9465000C9465007C
:100070000C9465000C9465000C9465000C9465006C
:100080000C9465000C9465000C94650011241FBE4F
:10009000CFEFD0E4DEBFCDBF11E0A0E0B1E0E6ECF1
:1000A000F2E000E00BBF02C007900D92A230B10752
:1000B000D9F711E0A2E0B1E001C01D92A430B10770
:1000C000E1F70E9467000C9461010C940000CF934B
:1000D000DF93CDB7DEB781E290E0FC01108284E2CD
:1000E00090E02FEFFC01208382E290E02FEFFC01F3
:1000F000208385E290E0FC0110820E94510188E794
:1001000090E0FC0180819181909303018093020132
:100110002091020130910301809100019091010131
:100120002817390730F085E290E02FEFFC0120839B
:10013000B7C02091000130910101C901880F991FBA
:10014000880F991F880F991F821B930B9C0136956E
:1001500027953695279536952795809102019091A0
:1001600003018217930730F085E290E02FE7FC014E
:10017000208396C02091000130910101C901880FB0
:10018000991F820F931F880F991F9C013695279501
:100190003695279536952795809102019091030118
:1001A0008217930730F085E290E02FE3FC01208373
:1001B00077C02091000130910101C901880F991F7A
:1001C000880F991F820F931F9C01369527953695AE
:1001D000279536952795809102019091030182170A
:1001E000930730F085E290E02FE1FC01208358C0B6
:1001F0008091000190910101880F991F880F991F2C
:100200009C013695279536952795369527958091AB
:100210000201909103018217930730F085E290E08C
:100220002FE0FC0120833CC02091000130910101AE
:10023000C901880F991F820F931F9C01369527953E
:100240003695279536952795809102019091030167
:100250008217930730F085E290E027E0FC012083CD
:100260001FC08091000190910101880F991F9C018E
:1002700036952795369527953695279580910201D5
:10028000909103018217930730F085E290E023E01C
:10029000FC01208305C085E290E021E0FC01208381
:1002A0002ECFCF93DF93CDB7DEB78AE790E02AE772
:1002B00030E0F9012081206EFC012083DF91CF9195
:0602C0000895F894FFCF41
:0202C600FF0037
:00000001FF
