:100000000C9446000C9465000C9465000C946500FB
:100010000C9465000C9465000C9465000C946500CC
:100020000C9465000C9465000C9465000C946500BC
:100030000C9465000C94DE010C9465000C94650032
:100040000C9465000C9465000C9465000C9465009C
:100050000C9465000C9465000C9465000C9465008C
:100060000C9465000C9465000C9465000C9465007C
:100070000C9465000C9465000C9465000C9465006C
:100080000C9465000C9465000C94650011241FBE4F
:10009000CFEFD0E4DEBFCDBF11E0A0E0B1E0E2E001
:1000A000F7E000E00BBF02C007900D92A630B10749
:1000B000D9F711E0A6E0B1E001C01D92AE30B10762
:1000C000E1F70E945C010C947F030C940000CF9335
:1000D000DF93CDB7DEB781E00E948C00DF91CF9136
:1000E0000895CF93DF93CDB7DEB784E690E00E940A
:1000F0002C0188E30E948C0086E00E948C008FE037
:100100000E948C0081E00E948C008AE090E00E94B6
:100110002C01DF91CF910895CF93DF931F92CDB73C
:10012000DEB789838BE290E02BE230E0F901208199
:100130002F7BFC01208388E290E02981FC01208351
:100140008BE290E02BE230E0F90120812068FC0195
:10015000208300008BE290E02BE230E0F901208167
:100160002F77FC01208382E090E00E942C010F9009
:10017000DF91CF910895CF93DF931F92CDB7DEB774
:1001800089838BE290E02BE230E0F901208120644A
:10019000FC01208388E290E02981FC0120838BE22E
:1001A00090E02BE230E0F90120812068FC012083FF
:1001B00000008BE290E02BE230E0F90120812F7704
:1001C000FC01208381E090E00E942C010F90DF91E0
:1001D000CF910895CF93DF9300D000D0CDB7DEB795
:1001E0008A837C836B830E9467008A81898311C024
:1001F000898191E0980F99830E9416018B819C81DF
:100200009C012F5F3F4F3C832B83FC0180810E9428
:10021000BB008B819C81FC018081882349F70F9072
:100220000F900F900F90DF91CF910895CF93DF93B0
:100230001F92CDB7DEB789838981813128F4898106
:1002400081580E948C0004C0898181550E948C00D5
:100250000F90DF91CF910895CF93DF9300D000D01E
:1002600000D0CDB7DEB79E838D831A82198214C069
:100270001C821B8206C000008B819C8101969C839E
:100280008B838B819C81873023E09207A4F3898143
:100290009A8101969A83898329813A818D819E81F1
:1002A000281739072CF326960FB6F894DEBF0FBE39
:1002B000CDBFDF91CF910895CF93DF93CDB7DEB758
:1002C00081E290E0FC01108287E290E02FEFFC01D8
:1002D00020838AE290E02FEFFC01208382E290E00D
:1002E0002FEFFC01208388E290E0FC0110828BE27A
:1002F00090E0FC0110820E94710010920D0110929A
:100300000C0162E370E080E090E00E943F020E94F6
:1003100093010E946C020000809106018823E1F3A2
:1003200010920601F6CFCF93DF93CDB7DEB781E809
:1003300090E02BE0FC01208388E890E02DE730E09E
:10034000FC01318320838FE690E022E0FC012083D2
:1003500084E890E0FC01118210828091000190916C
:100360000101A0910201B0910301809307019093D4
:100370000801A0930901B0930A018FE590E02FE5F1
:1003800030E0F90120812068FC012083DF91CF91CA
:100390000895CF93DF93CDB7DEB781E890E0FC01FD
:1003A0001082DF91CF910895CF93DF93CDB7DEB761
:1003B00081E080930601DF91CF9108951F920F9203
:1003C00000905F000F92112400905B000F922F931A
:1003D0003F934F935F936F937F938F939F93AF93CD
:1003E000BF93EF93FF93CF93DF93CDB7DEB78091A9
:1003F000070190910801A0910901B0910A010197AC
:10040000A109B1098093070190930801A093090104
:10041000B0930A018091070190910801A091090110
:10042000B0910A010097A105B10591F40E94D40191
:100430008091000190910101A0910201B09103010E
:100440008093070190930801A0930901B0930A01DA
:10045000DF91CF91FF91EF91BF91AF919F918F91DC
:100460007F916F915F914F913F912F910F900092EB
:100470005B000F9000925F000F901F901895CF9334
:10048000DF9300D000D0CDB7DEB769837A838B834A
:100490009C8389819A81AB81BC8180930001909378
:1004A0000101A0930201B09303018091000190919A
:1004B0000101A0910201B091030180930701909383
:1004C0000801A0930901B0930A010F900F900F90BB
:1004D0000F90DF91CF910895CF93DF93CDB7DEB723
:1004E00080910C0190910D018230910509F466C054
:1004F0008330910530F4009789F081309105D9F06F
:10050000FBC08430910509F490C08430910508F453
:1005100071C08530910509F4CBC0EEC081E00E9426
:10052000160180E30E94BB0081E090E090930D01F2
:1005300080930C01E1C080E290E0FC018081882F73
:1005400090E080959095837099278130910539F4DA
:1005500082E090E090930D0180930C01CDC080E289
:1005600090E0FC018081882F90E0809590958370C9
:1005700099278230910539F483E090E090930D0142
:1005800080930C01B9C080E290E0FC018081882F4B
:1005900090E080959095837099278330910539F488
:1005A00085E090E090930D0180930C01A5C081E05F
:1005B00090E090930D0180930C019EC080910B01FF
:1005C000893020F089E080930B0105C080910B01F8
:1005D0008F5F80930B0181E00E94160180910B01D7
:1005E000805D0E94BB0084E090E090930D018093B9
:1005F0000C0182C080910B01882319F410920B0129
:1006000005C080910B01815080930B0181E00E9415
:10061000160180910B01805D0E94BB0084E090E098
:1006200090930D0180930C0167C080E290E0FC0183
:100630008081882F90E080959095837099278130F4
:10064000910539F482E090E090930D0180930C01C4
:1006500053C080E290E0FC018081882F90E080957B
:100660009095837099278230910539F483E090E06A
:1006700090930D0180930C013FC080E290E0FC015B
:100680008081882F90E080959095837099278330A2
:10069000910539F485E090E090930D0180930C0171
:1006A0002BC084E090E090930D0180930C0124C056
:1006B00010920B0181E00E94160180910B01805D78
:1006C0000E94BB0080E290E0FC018081882F90E0D6
:1006D0008095909583709927009739F481E090E098
:1006E00090930D0180930C0107C085E090E09093FA
:1006F0000D0180930C010000DF91CF910895F894D3
:02070000FFCF29
:06070200010000003000C0
:00000001FF
